{
  "_format": "hh-sol-artifact-1",
  "contractName": "NFT",
  "sourceName": "contracts/NFT.sol",
  "abi": [
    {
      "inputs": [
        {
          "internalType": "uint256",
          "name": "_maxSupply",
          "type": "uint256"
        }
      ],
      "stateMutability": "nonpayable",
      "type": "constructor"
    },
    {
      "inputs": [
        {
          "internalType": "address",
          "name": "sender",
          "type": "address"
        },
        {
          "internalType": "uint256",
          "name": "tokenId",
          "type": "uint256"
        },
        {
          "internalType": "address",
          "name": "owner",
          "type": "address"
        }
      ],
      "name": "ERC721IncorrectOwner",
      "type": "error"
    },
    {
      "inputs": [
        {
          "internalType": "address",
          "name": "operator",
          "type": "address"
        },
        {
          "internalType": "uint256",
          "name": "tokenId",
          "type": "uint256"
        }
      ],
      "name": "ERC721InsufficientApproval",
      "type": "error"
    },
    {
      "inputs": [
        {
          "internalType": "address",
          "name": "approver",
          "type": "address"
        }
      ],
      "name": "ERC721InvalidApprover",
      "type": "error"
    },
    {
      "inputs": [
        {
          "internalType": "address",
          "name": "operator",
          "type": "address"
        }
      ],
      "name": "ERC721InvalidOperator",
      "type": "error"
    },
    {
      "inputs": [
        {
          "internalType": "address",
          "name": "owner",
          "type": "address"
        }
      ],
      "name": "ERC721InvalidOwner",
      "type": "error"
    },
    {
      "inputs": [
        {
          "internalType": "address",
          "name": "receiver",
          "type": "address"
        }
      ],
      "name": "ERC721InvalidReceiver",
      "type": "error"
    },
    {
      "inputs": [
        {
          "internalType": "address",
          "name": "sender",
          "type": "address"
        }
      ],
      "name": "ERC721InvalidSender",
      "type": "error"
    },
    {
      "inputs": [
        {
          "internalType": "uint256",
          "name": "tokenId",
          "type": "uint256"
        }
      ],
      "name": "ERC721NonexistentToken",
      "type": "error"
    },
    {
      "inputs": [
        {
          "internalType": "address",
          "name": "owner",
          "type": "address"
        }
      ],
      "name": "OwnableInvalidOwner",
      "type": "error"
    },
    {
      "inputs": [
        {
          "internalType": "address",
          "name": "account",
          "type": "address"
        }
      ],
      "name": "OwnableUnauthorizedAccount",
      "type": "error"
    },
    {
      "anonymous": false,
      "inputs": [
        {
          "indexed": true,
          "internalType": "address",
          "name": "owner",
          "type": "address"
        },
        {
          "indexed": true,
          "internalType": "address",
          "name": "approved",
          "type": "address"
        },
        {
          "indexed": true,
          "internalType": "uint256",
          "name": "tokenId",
          "type": "uint256"
        }
      ],
      "name": "Approval",
      "type": "event"
    },
    {
      "anonymous": false,
      "inputs": [
        {
          "indexed": true,
          "internalType": "address",
          "name": "owner",
          "type": "address"
        },
        {
          "indexed": true,
          "internalType": "address",
          "name": "operator",
          "type": "address"
        },
        {
          "indexed": false,
          "internalType": "bool",
          "name": "approved",
          "type": "bool"
        }
      ],
      "name": "ApprovalForAll",
      "type": "event"
    },
    {
      "anonymous": false,
      "inputs": [
        {
          "indexed": true,
          "internalType": "address",
          "name": "previousOwner",
          "type": "address"
        },
        {
          "indexed": true,
          "internalType": "address",
          "name": "newOwner",
          "type": "address"
        }
      ],
      "name": "OwnershipTransferred",
      "type": "event"
    },
    {
      "anonymous": false,
      "inputs": [
        {
          "indexed": true,
          "internalType": "address",
          "name": "from",
          "type": "address"
        },
        {
          "indexed": true,
          "internalType": "address",
          "name": "to",
          "type": "address"
        },
        {
          "indexed": true,
          "internalType": "uint256",
          "name": "tokenId",
          "type": "uint256"
        }
      ],
      "name": "Transfer",
      "type": "event"
    },
    {
      "inputs": [
        {
          "internalType": "address",
          "name": "to",
          "type": "address"
        },
        {
          "internalType": "uint256",
          "name": "tokenId",
          "type": "uint256"
        }
      ],
      "name": "approve",
      "outputs": [],
      "stateMutability": "nonpayable",
      "type": "function"
    },
    {
      "inputs": [
        {
          "internalType": "address",
          "name": "owner",
          "type": "address"
        }
      ],
      "name": "balanceOf",
      "outputs": [
        {
          "internalType": "uint256",
          "name": "",
          "type": "uint256"
        }
      ],
      "stateMutability": "view",
      "type": "function"
    },
    {
      "inputs": [],
      "name": "counter",
      "outputs": [
        {
          "internalType": "uint256",
          "name": "",
          "type": "uint256"
        }
      ],
      "stateMutability": "view",
      "type": "function"
    },
    {
      "inputs": [
        {
          "internalType": "uint256",
          "name": "tokenId",
          "type": "uint256"
        }
      ],
      "name": "getApproved",
      "outputs": [
        {
          "internalType": "address",
          "name": "",
          "type": "address"
        }
      ],
      "stateMutability": "view",
      "type": "function"
    },
    {
      "inputs": [
        {
          "internalType": "address",
          "name": "owner",
          "type": "address"
        },
        {
          "internalType": "address",
          "name": "operator",
          "type": "address"
        }
      ],
      "name": "isApprovedForAll",
      "outputs": [
        {
          "internalType": "bool",
          "name": "",
          "type": "bool"
        }
      ],
      "stateMutability": "view",
      "type": "function"
    },
    {
      "inputs": [],
      "name": "maxSupply",
      "outputs": [
        {
          "internalType": "uint256",
          "name": "",
          "type": "uint256"
        }
      ],
      "stateMutability": "view",
      "type": "function"
    },
    {
      "inputs": [
        {
          "internalType": "address",
          "name": "_recipient",
          "type": "address"
        }
      ],
      "name": "mintFor",
      "outputs": [],
      "stateMutability": "nonpayable",
      "type": "function"
    },
    {
      "inputs": [
        {
          "internalType": "address",
          "name": "",
          "type": "address"
        }
      ],
      "name": "minted",
      "outputs": [
        {
          "internalType": "bool",
          "name": "",
          "type": "bool"
        }
      ],
      "stateMutability": "view",
      "type": "function"
    },
    {
      "inputs": [],
      "name": "name",
      "outputs": [
        {
          "internalType": "string",
          "name": "",
          "type": "string"
        }
      ],
      "stateMutability": "view",
      "type": "function"
    },
    {
      "inputs": [],
      "name": "owner",
      "outputs": [
        {
          "internalType": "address",
          "name": "",
          "type": "address"
        }
      ],
      "stateMutability": "view",
      "type": "function"
    },
    {
      "inputs": [
        {
          "internalType": "uint256",
          "name": "tokenId",
          "type": "uint256"
        }
      ],
      "name": "ownerOf",
      "outputs": [
        {
          "internalType": "address",
          "name": "",
          "type": "address"
        }
      ],
      "stateMutability": "view",
      "type": "function"
    },
    {
      "inputs": [],
      "name": "renounceOwnership",
      "outputs": [],
      "stateMutability": "nonpayable",
      "type": "function"
    },
    {
      "inputs": [
        {
          "internalType": "address",
          "name": "from",
          "type": "address"
        },
        {
          "internalType": "address",
          "name": "to",
          "type": "address"
        },
        {
          "internalType": "uint256",
          "name": "tokenId",
          "type": "uint256"
        }
      ],
      "name": "safeTransferFrom",
      "outputs": [],
      "stateMutability": "nonpayable",
      "type": "function"
    },
    {
      "inputs": [
        {
          "internalType": "address",
          "name": "from",
          "type": "address"
        },
        {
          "internalType": "address",
          "name": "to",
          "type": "address"
        },
        {
          "internalType": "uint256",
          "name": "tokenId",
          "type": "uint256"
        },
        {
          "internalType": "bytes",
          "name": "data",
          "type": "bytes"
        }
      ],
      "name": "safeTransferFrom",
      "outputs": [],
      "stateMutability": "nonpayable",
      "type": "function"
    },
    {
      "inputs": [
        {
          "internalType": "address",
          "name": "operator",
          "type": "address"
        },
        {
          "internalType": "bool",
          "name": "approved",
          "type": "bool"
        }
      ],
      "name": "setApprovalForAll",
      "outputs": [],
      "stateMutability": "nonpayable",
      "type": "function"
    },
    {
      "inputs": [
        {
          "internalType": "bytes4",
          "name": "interfaceId",
          "type": "bytes4"
        }
      ],
      "name": "supportsInterface",
      "outputs": [
        {
          "internalType": "bool",
          "name": "",
          "type": "bool"
        }
      ],
      "stateMutability": "view",
      "type": "function"
    },
    {
      "inputs": [],
      "name": "symbol",
      "outputs": [
        {
          "internalType": "string",
          "name": "",
          "type": "string"
        }
      ],
      "stateMutability": "view",
      "type": "function"
    },
    {
      "inputs": [
        {
          "internalType": "uint256",
          "name": "tokenId",
          "type": "uint256"
        }
      ],
      "name": "tokenURI",
      "outputs": [
        {
          "internalType": "string",
          "name": "",
          "type": "string"
        }
      ],
      "stateMutability": "view",
      "type": "function"
    },
    {
      "inputs": [
        {
          "internalType": "address",
          "name": "from",
          "type": "address"
        },
        {
          "internalType": "address",
          "name": "to",
          "type": "address"
        },
        {
          "internalType": "uint256",
          "name": "tokenId",
          "type": "uint256"
        }
      ],
      "name": "transferFrom",
      "outputs": [],
      "stateMutability": "nonpayable",
      "type": "function"
    },
    {
      "inputs": [
        {
          "internalType": "address",
          "name": "newOwner",
          "type": "address"
        }
      ],
      "name": "transferOwnership",
      "outputs": [],
      "stateMutability": "nonpayable",
      "type": "function"
    }
  ],
  "bytecode": "0x60806040523480156200001157600080fd5b5060405162002bcf38038062002bcf833981810160405281019062000037919062000265565b336040518060400160405280600781526020017f4c6f79616c7479000000000000000000000000000000000000000000000000008152506040518060400160405280600381526020017f4c4f5900000000000000000000000000000000000000000000000000000000008152508160009081620000b5919062000507565b508060019081620000c7919062000507565b505050600073ffffffffffffffffffffffffffffffffffffffff168173ffffffffffffffffffffffffffffffffffffffff16036200013f5760006040517f1e4fbdf700000000000000000000000000000000000000000000000000000000815260040162000136919062000633565b60405180910390fd5b62000150816200015f60201b60201c565b50806008819055505062000650565b6000600660009054906101000a900473ffffffffffffffffffffffffffffffffffffffff16905081600660006101000a81548173ffffffffffffffffffffffffffffffffffffffff021916908373ffffffffffffffffffffffffffffffffffffffff1602179055508173ffffffffffffffffffffffffffffffffffffffff168173ffffffffffffffffffffffffffffffffffffffff167f8be0079c531659141344cd1fd0a4f28419497f9722a3daafe3b4186f6b6457e060405160405180910390a35050565b600080fd5b6000819050919050565b6200023f816200022a565b81146200024b57600080fd5b50565b6000815190506200025f8162000234565b92915050565b6000602082840312156200027e576200027d62000225565b5b60006200028e848285016200024e565b91505092915050565b600081519050919050565b7f4e487b7100000000000000000000000000000000000000000000000000000000600052604160045260246000fd5b7f4e487b7100000000000000000000000000000000000000000000000000000000600052602260045260246000fd5b600060028204905060018216806200031957607f821691505b6020821081036200032f576200032e620002d1565b5b50919050565b60008190508160005260206000209050919050565b60006020601f8301049050919050565b600082821b905092915050565b600060088302620003997fffffffffffffffffffffffffffffffffffffffffffffffffffffffffffffffff826200035a565b620003a586836200035a565b95508019841693508086168417925050509392505050565b6000819050919050565b6000620003e8620003e2620003dc846200022a565b620003bd565b6200022a565b9050919050565b6000819050919050565b6200040483620003c7565b6200041c6200041382620003ef565b84845462000367565b825550505050565b600090565b6200043362000424565b62000440818484620003f9565b505050565b5b8181101562000468576200045c60008262000429565b60018101905062000446565b5050565b601f821115620004b757620004818162000335565b6200048c846200034a565b810160208510156200049c578190505b620004b4620004ab856200034a565b83018262000445565b50505b505050565b600082821c905092915050565b6000620004dc60001984600802620004bc565b1980831691505092915050565b6000620004f78383620004c9565b9150826002028217905092915050565b620005128262000297565b67ffffffffffffffff8111156200052e576200052d620002a2565b5b6200053a825462000300565b620005478282856200046c565b600060209050601f8311600181146200057f57600084156200056a578287015190505b620005768582620004e9565b865550620005e6565b601f1984166200058f8662000335565b60005b82811015620005b95784890151825560018201915060208501945060208101905062000592565b86831015620005d95784890151620005d5601f891682620004c9565b8355505b6001600288020188555050505b505050505050565b600073ffffffffffffffffffffffffffffffffffffffff82169050919050565b60006200061b82620005ee565b9050919050565b6200062d816200060e565b82525050565b60006020820190506200064a600083018462000622565b92915050565b61256f80620006606000396000f3fe608060405234801561001057600080fd5b506004361061012c5760003560e01c8063715018a6116100ad578063b88d4fde11610071578063b88d4fde1461032f578063c87b56dd1461034b578063d5abeb011461037b578063e985e9c514610399578063f2fde38b146103c95761012c565b8063715018a6146102b157806371e578dc146102bb5780638da5cb5b146102d757806395d89b41146102f5578063a22cb465146103135761012c565b806323b872dd116100f457806323b872dd146101fb57806342842e0e1461021757806361bc221a146102335780636352211e1461025157806370a08231146102815761012c565b806301ffc9a71461013157806306fdde0314610161578063081812fc1461017f578063095ea7b3146101af5780631e7269c5146101cb575b600080fd5b61014b60048036038101906101469190611951565b6103e5565b6040516101589190611999565b60405180910390f35b6101696104c7565b6040516101769190611a44565b60405180910390f35b61019960048036038101906101949190611a9c565b610559565b6040516101a69190611b0a565b60405180910390f35b6101c960048036038101906101c49190611b51565b610575565b005b6101e560048036038101906101e09190611b91565b61058b565b6040516101f29190611999565b60405180910390f35b61021560048036038101906102109190611bbe565b6105ab565b005b610231600480360381019061022c9190611bbe565b6106ad565b005b61023b6106cd565b6040516102489190611c20565b60405180910390f35b61026b60048036038101906102669190611a9c565b6106d3565b6040516102789190611b0a565b60405180910390f35b61029b60048036038101906102969190611b91565b6106e5565b6040516102a89190611c20565b60405180910390f35b6102b961079f565b005b6102d560048036038101906102d09190611b91565b6107b3565b005b6102df610948565b6040516102ec9190611b0a565b60405180910390f35b6102fd610972565b60405161030a9190611a44565b60405180910390f35b61032d60048036038101906103289190611c67565b610a04565b005b61034960048036038101906103449190611ddc565b610a1a565b005b61036560048036038101906103609190611a9c565b610a37565b6040516103729190611a44565b60405180910390f35b610383610b35565b6040516103909190611c20565b60405180910390f35b6103b360048036038101906103ae9190611e5f565b610b3b565b6040516103c09190611999565b60405180910390f35b6103e360048036038101906103de9190611b91565b610bcf565b005b60007f80ac58cd000000000000000000000000000000000000000000000000000000007bffffffffffffffffffffffffffffffffffffffffffffffffffffffff1916827bffffffffffffffffffffffffffffffffffffffffffffffffffffffff191614806104b057507f5b5e139f000000000000000000000000000000000000000000000000000000007bffffffffffffffffffffffffffffffffffffffffffffffffffffffff1916827bffffffffffffffffffffffffffffffffffffffffffffffffffffffff1916145b806104c057506104bf82610c55565b5b9050919050565b6060600080546104d690611ece565b80601f016020809104026020016040519081016040528092919081815260200182805461050290611ece565b801561054f5780601f106105245761010080835404028352916020019161054f565b820191906000526020600020905b81548152906001019060200180831161053257829003601f168201915b5050505050905090565b600061056482610cbf565b5061056e82610d47565b9050919050565b6105878282610582610d84565b610d8c565b5050565b60096020528060005260406000206000915054906101000a900460ff1681565b600073ffffffffffffffffffffffffffffffffffffffff168273ffffffffffffffffffffffffffffffffffffffff160361061d5760006040517f64a0ae920000000000000000000000000000000000000000000000000000000081526004016106149190611b0a565b60405180910390fd5b6000610631838361062c610d84565b610d9e565b90508373ffffffffffffffffffffffffffffffffffffffff168173ffffffffffffffffffffffffffffffffffffffff16146106a7578382826040517f64283d7b00000000000000000000000000000000000000000000000000000000815260040161069e93929190611eff565b60405180910390fd5b50505050565b6106c883838360405180602001604052806000815250610a1a565b505050565b60075481565b60006106de82610cbf565b9050919050565b60008073ffffffffffffffffffffffffffffffffffffffff168273ffffffffffffffffffffffffffffffffffffffff16036107585760006040517f89c62b6400000000000000000000000000000000000000000000000000000000815260040161074f9190611b0a565b60405180910390fd5b600360008373ffffffffffffffffffffffffffffffffffffffff1673ffffffffffffffffffffffffffffffffffffffff168152602001908152602001600020549050919050565b6107a7610fb8565b6107b1600061103f565b565b6107bb610fb8565b60085460075410610801576040517f08c379a00000000000000000000000000000000000000000000000000000000081526004016107f890611f82565b60405180910390fd5b600960008273ffffffffffffffffffffffffffffffffffffffff1673ffffffffffffffffffffffffffffffffffffffff16815260200190815260200160002060009054906101000a900460ff161561088e576040517f08c379a000000000000000000000000000000000000000000000000000000000815260040161088590611fee565b60405180910390fd5b6001600960008373ffffffffffffffffffffffffffffffffffffffff1673ffffffffffffffffffffffffffffffffffffffff16815260200190815260200160002060006101000a81548160ff021916908315150217905550600760008154809291906108f99061203d565b919050555061090a81600754611105565b6040518060600160405280602e815260200161250c602e9139600a6000600754815260200190815260200160002090816109449190612231565b5050565b6000600660009054906101000a900473ffffffffffffffffffffffffffffffffffffffff16905090565b60606001805461098190611ece565b80601f01602080910402602001604051908101604052809291908181526020018280546109ad90611ece565b80156109fa5780601f106109cf576101008083540402835291602001916109fa565b820191906000526020600020905b8154815290600101906020018083116109dd57829003601f168201915b5050505050905090565b610a16610a0f610d84565b8383611123565b5050565b610a258484846105ab565b610a3184848484611292565b50505050565b60606000600a60008481526020019081526020016000208054610a5990611ece565b80601f0160208091040260200160405190810160405280929190818152602001828054610a8590611ece565b8015610ad25780601f10610aa757610100808354040283529160200191610ad2565b820191906000526020600020905b815481529060010190602001808311610ab557829003601f168201915b505050505090506000815103610afa5760405180602001604052806000815250915050610b30565b600a6000848152602001908152602001600020604051602001610b1d91906123dd565b6040516020818303038152906040529150505b919050565b60085481565b6000600560008473ffffffffffffffffffffffffffffffffffffffff1673ffffffffffffffffffffffffffffffffffffffff16815260200190815260200160002060008373ffffffffffffffffffffffffffffffffffffffff1673ffffffffffffffffffffffffffffffffffffffff16815260200190815260200160002060009054906101000a900460ff16905092915050565b610bd7610fb8565b600073ffffffffffffffffffffffffffffffffffffffff168173ffffffffffffffffffffffffffffffffffffffff1603610c495760006040517f1e4fbdf7000000000000000000000000000000000000000000000000000000008152600401610c409190611b0a565b60405180910390fd5b610c528161103f565b50565b60007f01ffc9a7000000000000000000000000000000000000000000000000000000007bffffffffffffffffffffffffffffffffffffffffffffffffffffffff1916827bffffffffffffffffffffffffffffffffffffffffffffffffffffffff1916149050919050565b600080610ccb83611449565b9050600073ffffffffffffffffffffffffffffffffffffffff168173ffffffffffffffffffffffffffffffffffffffff1603610d3e57826040517f7e273289000000000000000000000000000000000000000000000000000000008152600401610d359190611c20565b60405180910390fd5b80915050919050565b60006004600083815260200190815260200160002060009054906101000a900473ffffffffffffffffffffffffffffffffffffffff169050919050565b600033905090565b610d998383836001611486565b505050565b600080610daa84611449565b9050600073ffffffffffffffffffffffffffffffffffffffff168373ffffffffffffffffffffffffffffffffffffffff1614610dec57610deb81848661164b565b5b600073ffffffffffffffffffffffffffffffffffffffff168173ffffffffffffffffffffffffffffffffffffffff1614610e7d57610e2e600085600080611486565b6001600360008373ffffffffffffffffffffffffffffffffffffffff1673ffffffffffffffffffffffffffffffffffffffff168152602001908152602001600020600082825403925050819055505b600073ffffffffffffffffffffffffffffffffffffffff168573ffffffffffffffffffffffffffffffffffffffff1614610f00576001600360008773ffffffffffffffffffffffffffffffffffffffff1673ffffffffffffffffffffffffffffffffffffffff168152602001908152602001600020600082825401925050819055505b846002600086815260200190815260200160002060006101000a81548173ffffffffffffffffffffffffffffffffffffffff021916908373ffffffffffffffffffffffffffffffffffffffff160217905550838573ffffffffffffffffffffffffffffffffffffffff168273ffffffffffffffffffffffffffffffffffffffff167fddf252ad1be2c89b69c2b068fc378daa952ba7f163c4a11628f55a4df523b3ef60405160405180910390a4809150509392505050565b610fc0610d84565b73ffffffffffffffffffffffffffffffffffffffff16610fde610948565b73ffffffffffffffffffffffffffffffffffffffff161461103d57611001610d84565b6040517f118cdaa70000000000000000000000000000000000000000000000000000000081526004016110349190611b0a565b60405180910390fd5b565b6000600660009054906101000a900473ffffffffffffffffffffffffffffffffffffffff16905081600660006101000a81548173ffffffffffffffffffffffffffffffffffffffff021916908373ffffffffffffffffffffffffffffffffffffffff1602179055508173ffffffffffffffffffffffffffffffffffffffff168173ffffffffffffffffffffffffffffffffffffffff167f8be0079c531659141344cd1fd0a4f28419497f9722a3daafe3b4186f6b6457e060405160405180910390a35050565b61111f82826040518060200160405280600081525061170f565b5050565b600073ffffffffffffffffffffffffffffffffffffffff168273ffffffffffffffffffffffffffffffffffffffff160361119457816040517f5b08ba1800000000000000000000000000000000000000000000000000000000815260040161118b9190611b0a565b60405180910390fd5b80600560008573ffffffffffffffffffffffffffffffffffffffff1673ffffffffffffffffffffffffffffffffffffffff16815260200190815260200160002060008473ffffffffffffffffffffffffffffffffffffffff1673ffffffffffffffffffffffffffffffffffffffff16815260200190815260200160002060006101000a81548160ff0219169083151502179055508173ffffffffffffffffffffffffffffffffffffffff168373ffffffffffffffffffffffffffffffffffffffff167f17307eab39ab6107e8899845ad3d59bd9653f200f220920489ca2b5937696c31836040516112859190611999565b60405180910390a3505050565b60008373ffffffffffffffffffffffffffffffffffffffff163b1115611443578273ffffffffffffffffffffffffffffffffffffffff1663150b7a026112d6610d84565b8685856040518563ffffffff1660e01b81526004016112f89493929190612454565b6020604051808303816000875af192505050801561133457506040513d601f19601f8201168201806040525081019061133191906124b5565b60015b6113b8573d8060008114611364576040519150601f19603f3d011682016040523d82523d6000602084013e611369565b606091505b5060008151036113b057836040517f64a0ae920000000000000000000000000000000000000000000000000000000081526004016113a79190611b0a565b60405180910390fd5b805181602001fd5b63150b7a0260e01b7bffffffffffffffffffffffffffffffffffffffffffffffffffffffff1916817bffffffffffffffffffffffffffffffffffffffffffffffffffffffff19161461144157836040517f64a0ae920000000000000000000000000000000000000000000000000000000081526004016114389190611b0a565b60405180910390fd5b505b50505050565b60006002600083815260200190815260200160002060009054906101000a900473ffffffffffffffffffffffffffffffffffffffff169050919050565b80806114bf5750600073ffffffffffffffffffffffffffffffffffffffff168273ffffffffffffffffffffffffffffffffffffffff1614155b156115f35760006114cf84610cbf565b9050600073ffffffffffffffffffffffffffffffffffffffff168373ffffffffffffffffffffffffffffffffffffffff161415801561153a57508273ffffffffffffffffffffffffffffffffffffffff168173ffffffffffffffffffffffffffffffffffffffff1614155b801561154d575061154b8184610b3b565b155b1561158f57826040517fa9fbf51f0000000000000000000000000000000000000000000000000000000081526004016115869190611b0a565b60405180910390fd5b81156115f157838573ffffffffffffffffffffffffffffffffffffffff168273ffffffffffffffffffffffffffffffffffffffff167f8c5be1e5ebec7d5bd14f71427d1e84f3dd0314c0f7b2291e5b200ac8c7c3b92560405160405180910390a45b505b836004600085815260200190815260200160002060006101000a81548173ffffffffffffffffffffffffffffffffffffffff021916908373ffffffffffffffffffffffffffffffffffffffff16021790555050505050565b61165683838361172b565b61170a57600073ffffffffffffffffffffffffffffffffffffffff168373ffffffffffffffffffffffffffffffffffffffff16036116cb57806040517f7e2732890000000000000000000000000000000000000000000000000000000081526004016116c29190611c20565b60405180910390fd5b81816040517f177e802f0000000000000000000000000000000000000000000000000000000081526004016117019291906124e2565b60405180910390fd5b505050565b61171983836117ec565b6117266000848484611292565b505050565b60008073ffffffffffffffffffffffffffffffffffffffff168373ffffffffffffffffffffffffffffffffffffffff16141580156117e357508273ffffffffffffffffffffffffffffffffffffffff168473ffffffffffffffffffffffffffffffffffffffff1614806117a457506117a38484610b3b565b5b806117e257508273ffffffffffffffffffffffffffffffffffffffff166117ca83610d47565b73ffffffffffffffffffffffffffffffffffffffff16145b5b90509392505050565b600073ffffffffffffffffffffffffffffffffffffffff168273ffffffffffffffffffffffffffffffffffffffff160361185e5760006040517f64a0ae920000000000000000000000000000000000000000000000000000000081526004016118559190611b0a565b60405180910390fd5b600061186c83836000610d9e565b9050600073ffffffffffffffffffffffffffffffffffffffff168173ffffffffffffffffffffffffffffffffffffffff16146118e05760006040517f73c6ac6e0000000000000000000000000000000000000000000000000000000081526004016118d79190611b0a565b60405180910390fd5b505050565b6000604051905090565b600080fd5b600080fd5b60007fffffffff0000000000000000000000000000000000000000000000000000000082169050919050565b61192e816118f9565b811461193957600080fd5b50565b60008135905061194b81611925565b92915050565b600060208284031215611967576119666118ef565b5b60006119758482850161193c565b91505092915050565b60008115159050919050565b6119938161197e565b82525050565b60006020820190506119ae600083018461198a565b92915050565b600081519050919050565b600082825260208201905092915050565b60005b838110156119ee5780820151818401526020810190506119d3565b60008484015250505050565b6000601f19601f8301169050919050565b6000611a16826119b4565b611a2081856119bf565b9350611a308185602086016119d0565b611a39816119fa565b840191505092915050565b60006020820190508181036000830152611a5e8184611a0b565b905092915050565b6000819050919050565b611a7981611a66565b8114611a8457600080fd5b50565b600081359050611a9681611a70565b92915050565b600060208284031215611ab257611ab16118ef565b5b6000611ac084828501611a87565b91505092915050565b600073ffffffffffffffffffffffffffffffffffffffff82169050919050565b6000611af482611ac9565b9050919050565b611b0481611ae9565b82525050565b6000602082019050611b1f6000830184611afb565b92915050565b611b2e81611ae9565b8114611b3957600080fd5b50565b600081359050611b4b81611b25565b92915050565b60008060408385031215611b6857611b676118ef565b5b6000611b7685828601611b3c565b9250506020611b8785828601611a87565b9150509250929050565b600060208284031215611ba757611ba66118ef565b5b6000611bb584828501611b3c565b91505092915050565b600080600060608486031215611bd757611bd66118ef565b5b6000611be586828701611b3c565b9350506020611bf686828701611b3c565b9250506040611c0786828701611a87565b9150509250925092565b611c1a81611a66565b82525050565b6000602082019050611c356000830184611c11565b92915050565b611c448161197e565b8114611c4f57600080fd5b50565b600081359050611c6181611c3b565b92915050565b60008060408385031215611c7e57611c7d6118ef565b5b6000611c8c85828601611b3c565b9250506020611c9d85828601611c52565b9150509250929050565b600080fd5b600080fd5b7f4e487b7100000000000000000000000000000000000000000000000000000000600052604160045260246000fd5b611ce9826119fa565b810181811067ffffffffffffffff82111715611d0857611d07611cb1565b5b80604052505050565b6000611d1b6118e5565b9050611d278282611ce0565b919050565b600067ffffffffffffffff821115611d4757611d46611cb1565b5b611d50826119fa565b9050602081019050919050565b82818337600083830152505050565b6000611d7f611d7a84611d2c565b611d11565b905082815260208101848484011115611d9b57611d9a611cac565b5b611da6848285611d5d565b509392505050565b600082601f830112611dc357611dc2611ca7565b5b8135611dd3848260208601611d6c565b91505092915050565b60008060008060808587031215611df657611df56118ef565b5b6000611e0487828801611b3c565b9450506020611e1587828801611b3c565b9350506040611e2687828801611a87565b925050606085013567ffffffffffffffff811115611e4757611e466118f4565b5b611e5387828801611dae565b91505092959194509250565b60008060408385031215611e7657611e756118ef565b5b6000611e8485828601611b3c565b9250506020611e9585828601611b3c565b9150509250929050565b7f4e487b7100000000000000000000000000000000000000000000000000000000600052602260045260246000fd5b60006002820490506001821680611ee657607f821691505b602082108103611ef957611ef8611e9f565b5b50919050565b6000606082019050611f146000830186611afb565b611f216020830185611c11565b611f2e6040830184611afb565b949350505050565b7f4d6178537570706c795265616368656400000000000000000000000000000000600082015250565b6000611f6c6010836119bf565b9150611f7782611f36565b602082019050919050565b60006020820190508181036000830152611f9b81611f5f565b9050919050565b7f4f6e654d696e7450657241646472657373000000000000000000000000000000600082015250565b6000611fd86011836119bf565b9150611fe382611fa2565b602082019050919050565b6000602082019050818103600083015261200781611fcb565b9050919050565b7f4e487b7100000000000000000000000000000000000000000000000000000000600052601160045260246000fd5b600061204882611a66565b91507fffffffffffffffffffffffffffffffffffffffffffffffffffffffffffffffff820361207a5761207961200e565b5b600182019050919050565b60008190508160005260206000209050919050565b60006020601f8301049050919050565b600082821b905092915050565b6000600883026120e77fffffffffffffffffffffffffffffffffffffffffffffffffffffffffffffffff826120aa565b6120f186836120aa565b95508019841693508086168417925050509392505050565b6000819050919050565b600061212e61212961212484611a66565b612109565b611a66565b9050919050565b6000819050919050565b61214883612113565b61215c61215482612135565b8484546120b7565b825550505050565b600090565b612171612164565b61217c81848461213f565b505050565b5b818110156121a057612195600082612169565b600181019050612182565b5050565b601f8211156121e5576121b681612085565b6121bf8461209a565b810160208510156121ce578190505b6121e26121da8561209a565b830182612181565b50505b505050565b600082821c905092915050565b6000612208600019846008026121ea565b1980831691505092915050565b600061222183836121f7565b9150826002028217905092915050565b61223a826119b4565b67ffffffffffffffff81111561225357612252611cb1565b5b61225d8254611ece565b6122688282856121a4565b600060209050601f83116001811461229b5760008415612289578287015190505b6122938582612215565b8655506122fb565b601f1984166122a986612085565b60005b828110156122d1578489015182556001820191506020850194506020810190506122ac565b868310156122ee57848901516122ea601f8916826121f7565b8355505b6001600288020188555050505b505050505050565b600081905092915050565b7f68747470733a2f2f697066732e696f2f697066732f0000000000000000000000600082015250565b6000612344601583612303565b915061234f8261230e565b601582019050919050565b6000815461236781611ece565b6123718186612303565b9450600182166000811461238c57600181146123a1576123d4565b60ff19831686528115158202860193506123d4565b6123aa85612085565b60005b838110156123cc578154818901526001820191506020810190506123ad565b838801955050505b50505092915050565b60006123e882612337565b91506123f4828461235a565b915081905092915050565b600081519050919050565b600082825260208201905092915050565b6000612426826123ff565b612430818561240a565b93506124408185602086016119d0565b612449816119fa565b840191505092915050565b60006080820190506124696000830187611afb565b6124766020830186611afb565b6124836040830185611c11565b8181036060830152612495818461241b565b905095945050505050565b6000815190506124af81611925565b92915050565b6000602082840312156124cb576124ca6118ef565b5b60006124d9848285016124a0565b91505092915050565b60006040820190506124f76000830185611afb565b6125046020830184611c11565b939250505056fe516d5633796150557636317a6865466732356e44577a413776756878796f345173417277734262796b4171534279a264697066735822122084ed365292a2ee674011d2f210b2e60a9ca38d90261bf249f627a9824980fd4e64736f6c63430008170033",
  "linkReferences": {},
  "deployedLinkReferences": {}
}